{
  "_format": "hh-sol-artifact-1",
  "contractName": "LoanDesk",
  "sourceName": "contracts/LoanDesk.sol",
  "abi": [
    {
      "inputs": [
        {
          "internalType": "address",
          "name": "_lender",
          "type": "address"
        }
      ],
      "stateMutability": "nonpayable",
      "type": "constructor"
    },
    {
      "anonymous": false,
      "inputs": [
        {
          "indexed": true,
          "internalType": "uint256",
          "name": "id",
          "type": "uint256"
        },
        {
          "indexed": true,
          "internalType": "address",
          "name": "borrower",
          "type": "address"
        },
        {
          "indexed": false,
          "internalType": "uint256",
          "name": "amountInCents",
          "type": "uint256"
        },
        {
          "indexed": false,
          "internalType": "uint16",
          "name": "creditScore",
          "type": "uint16"
        }
      ],
      "name": "RequestCreated",
      "type": "event"
    },
    {
      "anonymous": false,
      "inputs": [
        {
          "indexed": true,
          "internalType": "uint256",
          "name": "id",
          "type": "uint256"
        },
        {
          "indexed": false,
          "internalType": "enum LoanDesk.Status",
          "name": "newStatus",
          "type": "uint8"
        }
      ],
      "name": "RequestReviewed",
      "type": "event"
    },
    {
      "inputs": [
        {
          "internalType": "uint256",
          "name": "amountInCents",
          "type": "uint256"
        },
        {
          "internalType": "string",
          "name": "purpose",
          "type": "string"
        },
        {
          "internalType": "string",
          "name": "metadataURI",
          "type": "string"
        },
        {
          "internalType": "uint16",
          "name": "creditScore",
          "type": "uint16"
        }
      ],
      "name": "createRequest",
      "outputs": [
        {
          "internalType": "uint256",
          "name": "",
          "type": "uint256"
        }
      ],
      "stateMutability": "nonpayable",
      "type": "function"
    },
    {
      "inputs": [
        {
          "internalType": "address",
          "name": "borrower",
          "type": "address"
        }
      ],
      "name": "getBorrowerRequestIds",
      "outputs": [
        {
          "internalType": "uint256[]",
          "name": "",
          "type": "uint256[]"
        }
      ],
      "stateMutability": "view",
      "type": "function"
    },
    {
      "inputs": [],
      "name": "getPendingRequestIds",
      "outputs": [
        {
          "internalType": "uint256[]",
          "name": "",
          "type": "uint256[]"
        }
      ],
      "stateMutability": "view",
      "type": "function"
    },
    {
      "inputs": [
        {
          "internalType": "uint256",
          "name": "id",
          "type": "uint256"
        }
      ],
      "name": "getRequest",
      "outputs": [
        {
          "components": [
            {
              "internalType": "uint256",
              "name": "id",
              "type": "uint256"
            },
            {
              "internalType": "address",
              "name": "borrower",
              "type": "address"
            },
            {
              "internalType": "uint256",
              "name": "amountInCents",
              "type": "uint256"
            },
            {
              "internalType": "string",
              "name": "purpose",
              "type": "string"
            },
            {
              "internalType": "string",
              "name": "metadataURI",
              "type": "string"
            },
            {
              "internalType": "uint16",
              "name": "creditScore",
              "type": "uint16"
            },
            {
              "internalType": "enum LoanDesk.Status",
              "name": "status",
              "type": "uint8"
            },
            {
              "internalType": "uint64",
              "name": "createdAt",
              "type": "uint64"
            }
          ],
          "internalType": "struct LoanDesk.Request",
          "name": "",
          "type": "tuple"
        }
      ],
      "stateMutability": "view",
      "type": "function"
    },
    {
      "inputs": [],
      "name": "getTotalRequests",
      "outputs": [
        {
          "internalType": "uint256",
          "name": "",
          "type": "uint256"
        }
      ],
      "stateMutability": "view",
      "type": "function"
    },
    {
      "inputs": [],
      "name": "lender",
      "outputs": [
        {
          "internalType": "address",
          "name": "",
          "type": "address"
        }
      ],
      "stateMutability": "view",
      "type": "function"
    },
    {
      "inputs": [],
      "name": "requestCount",
      "outputs": [
        {
          "internalType": "uint256",
          "name": "",
          "type": "uint256"
        }
      ],
      "stateMutability": "view",
      "type": "function"
    },
    {
      "inputs": [
        {
          "internalType": "uint256",
          "name": "",
          "type": "uint256"
        }
      ],
      "name": "requests",
      "outputs": [
        {
          "internalType": "uint256",
          "name": "id",
          "type": "uint256"
        },
        {
          "internalType": "address",
          "name": "borrower",
          "type": "address"
        },
        {
          "internalType": "uint256",
          "name": "amountInCents",
          "type": "uint256"
        },
        {
          "internalType": "string",
          "name": "purpose",
          "type": "string"
        },
        {
          "internalType": "string",
          "name": "metadataURI",
          "type": "string"
        },
        {
          "internalType": "uint16",
          "name": "creditScore",
          "type": "uint16"
        },
        {
          "internalType": "enum LoanDesk.Status",
          "name": "status",
          "type": "uint8"
        },
        {
          "internalType": "uint64",
          "name": "createdAt",
          "type": "uint64"
        }
      ],
      "stateMutability": "view",
      "type": "function"
    },
    {
      "inputs": [
        {
          "internalType": "uint256",
          "name": "id",
          "type": "uint256"
        },
        {
          "internalType": "bool",
          "name": "approve",
          "type": "bool"
        }
      ],
      "name": "review",
      "outputs": [],
      "stateMutability": "nonpayable",
      "type": "function"
    }
  ],
  "bytecode": "0x608060405234801561001057600080fd5b50604051611eaf380380611eaf8339818101604052810190610032919061014a565b600073ffffffffffffffffffffffffffffffffffffffff168173ffffffffffffffffffffffffffffffffffffffff16036100a1576040517f08c379a0000000000000000000000000000000000000000000000000000000008152600401610098906101d4565b60405180910390fd5b806000806101000a81548173ffffffffffffffffffffffffffffffffffffffff021916908373ffffffffffffffffffffffffffffffffffffffff160217905550506101f4565b600080fd5b600073ffffffffffffffffffffffffffffffffffffffff82169050919050565b6000610117826100ec565b9050919050565b6101278161010c565b811461013257600080fd5b50565b6000815190506101448161011e565b92915050565b6000602082840312156101605761015f6100e7565b5b600061016e84828501610135565b91505092915050565b600082825260208201905092915050565b7f6c656e6465722072657175697265640000000000000000000000000000000000600082015250565b60006101be600f83610177565b91506101c982610188565b602082019050919050565b600060208201905081810360008301526101ed816101b1565b9050919050565b611cac806102036000396000f3fe608060405234801561001057600080fd5b50600436106100935760003560e01c806381d12c581161006657806381d12c58146101205780638f163d7b14610157578063bcead63e14610187578063c58343ef146101a5578063f0e22d52146101d557610093565b8063150ad28014610098578063288b7952146100b45780635badbe4c146100d257806373aade5d146100f0575b600080fd5b6100b260048036038101906100ad9190610fcd565b6101f3565b005b6100bc6103df565b6040516100c991906110cb565b60405180910390f35b6100da6105e9565b6040516100e791906110fc565b60405180910390f35b61010a60048036038101906101059190611175565b6105ef565b60405161011791906110cb565b60405180910390f35b61013a600480360381019061013591906111a2565b6107a1565b60405161014e989796959493929190611325565b60405180910390f35b610171600480360381019061016c9190611442565b610948565b60405161017e91906110fc565b60405180910390f35b61018f610c63565b60405161019c91906114e9565b60405180910390f35b6101bf60048036038101906101ba91906111a2565b610c87565b6040516101cc9190611641565b60405180910390f35b6101dd610ed0565b6040516101ea91906110fc565b60405180910390f35b60008054906101000a900473ffffffffffffffffffffffffffffffffffffffff1673ffffffffffffffffffffffffffffffffffffffff163373ffffffffffffffffffffffffffffffffffffffff1614610281576040517f08c379a0000000000000000000000000000000000000000000000000000000008152600401610278906116af565b60405180910390fd5b600060026000848152602001908152602001600020905060008160000154036102df576040517f08c379a00000000000000000000000000000000000000000000000000000000081526004016102d69061171b565b60405180910390fd5b600060028111156102f3576102f261128b565b5b8160050160029054906101000a900460ff1660028111156103175761031661128b565b5b14610357576040517f08c379a000000000000000000000000000000000000000000000000000000000815260040161034e90611787565b60405180910390fd5b81610363576002610366565b60015b8160050160026101000a81548160ff0219169083600281111561038c5761038b61128b565b5b0217905550827f6ee681ad72a43ade74b0dbfae933f70254eda2c2324782192ff21a87125769af8260050160029054906101000a900460ff166040516103d291906117a7565b60405180910390a2505050565b606060008054906101000a900473ffffffffffffffffffffffffffffffffffffffff1673ffffffffffffffffffffffffffffffffffffffff163373ffffffffffffffffffffffffffffffffffffffff161461046f576040517f08c379a0000000000000000000000000000000000000000000000000000000008152600401610466906116af565b60405180910390fd5b600080600190505b60015481116104f157600060028111156104945761049361128b565b5b6002600083815260200190815260200160002060050160029054906101000a900460ff1660028111156104ca576104c961128b565b5b036104de5781806104da906117f1565b9250505b80806104e9906117f1565b915050610477565b5060008167ffffffffffffffff81111561050e5761050d611839565b5b60405190808252806020026020018201604052801561053c5781602001602082028036833780820191505090505b509050600080600190505b60015481116105df57600060028111156105645761056361128b565b5b6002600083815260200190815260200160002060050160029054906101000a900460ff16600281111561059a5761059961128b565b5b036105cc57808383806105ac906117f1565b9450815181106105bf576105be611868565b5b6020026020010181815250505b80806105d7906117f1565b915050610547565b5081935050505090565b60015481565b6060600080600190505b600154811161068d578373ffffffffffffffffffffffffffffffffffffffff166002600083815260200190815260200160002060010160009054906101000a900473ffffffffffffffffffffffffffffffffffffffff1673ffffffffffffffffffffffffffffffffffffffff160361067a578180610676906117f1565b9250505b8080610685906117f1565b9150506105f9565b5060008167ffffffffffffffff8111156106aa576106a9611839565b5b6040519080825280602002602001820160405280156106d85781602001602082028036833780820191505090505b509050600080600190505b6001548111610795578573ffffffffffffffffffffffffffffffffffffffff166002600083815260200190815260200160002060010160009054906101000a900473ffffffffffffffffffffffffffffffffffffffff1673ffffffffffffffffffffffffffffffffffffffff16036107825780838380610762906117f1565b94508151811061077557610774611868565b5b6020026020010181815250505b808061078d906117f1565b9150506106e3565b50819350505050919050565b60026020528060005260406000206000915090508060000154908060010160009054906101000a900473ffffffffffffffffffffffffffffffffffffffff16908060020154908060030180546107f6906118c6565b80601f0160208091040260200160405190810160405280929190818152602001828054610822906118c6565b801561086f5780601f106108445761010080835404028352916020019161086f565b820191906000526020600020905b81548152906001019060200180831161085257829003601f168201915b505050505090806004018054610884906118c6565b80601f01602080910402602001604051908101604052809291908181526020018280546108b0906118c6565b80156108fd5780601f106108d2576101008083540402835291602001916108fd565b820191906000526020600020905b8154815290600101906020018083116108e057829003601f168201915b5050505050908060050160009054906101000a900461ffff16908060050160029054906101000a900460ff16908060050160039054906101000a900467ffffffffffffffff16905088565b600080871161098c576040517f08c379a000000000000000000000000000000000000000000000000000000000815260040161098390611943565b60405180910390fd5b60008261ffff16116109d3576040517f08c379a00000000000000000000000000000000000000000000000000000000081526004016109ca906119af565b60405180910390fd5b60006001600081546109e4906117f1565b91905081905590506040518061010001604052808281526020013373ffffffffffffffffffffffffffffffffffffffff16815260200189815260200188888080601f016020809104026020016040519081016040528093929190818152602001838380828437600081840152601f19601f82011690508083019250505050505050815260200186868080601f016020809104026020016040519081016040528093929190818152602001838380828437600081840152601f19601f8201169050808301925050505050505081526020018461ffff16815260200160006002811115610ad257610ad161128b565b5b81526020014267ffffffffffffffff16815250600260008381526020019081526020016000206000820151816000015560208201518160010160006101000a81548173ffffffffffffffffffffffffffffffffffffffff021916908373ffffffffffffffffffffffffffffffffffffffff160217905550604082015181600201556060820151816003019081610b689190611b7b565b506080820151816004019081610b7e9190611b7b565b5060a08201518160050160006101000a81548161ffff021916908361ffff16021790555060c08201518160050160026101000a81548160ff02191690836002811115610bcd57610bcc61128b565b5b021790555060e08201518160050160036101000a81548167ffffffffffffffff021916908367ffffffffffffffff1602179055509050503373ffffffffffffffffffffffffffffffffffffffff16817f9821ecfa422cd1c4ebe519a58867c526ff867952a6686dc157a2481f465964148a86604051610c4d929190611c4d565b60405180910390a3809150509695505050505050565b60008054906101000a900473ffffffffffffffffffffffffffffffffffffffff1681565b610c8f610eda565b6002600083815260200190815260200160002060405180610100016040529081600082015481526020016001820160009054906101000a900473ffffffffffffffffffffffffffffffffffffffff1673ffffffffffffffffffffffffffffffffffffffff1673ffffffffffffffffffffffffffffffffffffffff16815260200160028201548152602001600382018054610d28906118c6565b80601f0160208091040260200160405190810160405280929190818152602001828054610d54906118c6565b8015610da15780601f10610d7657610100808354040283529160200191610da1565b820191906000526020600020905b815481529060010190602001808311610d8457829003601f168201915b50505050508152602001600482018054610dba906118c6565b80601f0160208091040260200160405190810160405280929190818152602001828054610de6906118c6565b8015610e335780601f10610e0857610100808354040283529160200191610e33565b820191906000526020600020905b815481529060010190602001808311610e1657829003601f168201915b505050505081526020016005820160009054906101000a900461ffff1661ffff1661ffff1681526020016005820160029054906101000a900460ff166002811115610e8157610e8061128b565b5b6002811115610e9357610e9261128b565b5b81526020016005820160039054906101000a900467ffffffffffffffff1667ffffffffffffffff1667ffffffffffffffff16815250509050919050565b6000600154905090565b60405180610100016040528060008152602001600073ffffffffffffffffffffffffffffffffffffffff168152602001600081526020016060815260200160608152602001600061ffff16815260200160006002811115610f3e57610f3d61128b565b5b8152602001600067ffffffffffffffff1681525090565b600080fd5b600080fd5b6000819050919050565b610f7281610f5f565b8114610f7d57600080fd5b50565b600081359050610f8f81610f69565b92915050565b60008115159050919050565b610faa81610f95565b8114610fb557600080fd5b50565b600081359050610fc781610fa1565b92915050565b60008060408385031215610fe457610fe3610f55565b5b6000610ff285828601610f80565b925050602061100385828601610fb8565b9150509250929050565b600081519050919050565b600082825260208201905092915050565b6000819050602082019050919050565b61104281610f5f565b82525050565b60006110548383611039565b60208301905092915050565b6000602082019050919050565b60006110788261100d565b6110828185611018565b935061108d83611029565b8060005b838110156110be5781516110a58882611048565b97506110b083611060565b925050600181019050611091565b5085935050505092915050565b600060208201905081810360008301526110e5818461106d565b905092915050565b6110f681610f5f565b82525050565b600060208201905061111160008301846110ed565b92915050565b600073ffffffffffffffffffffffffffffffffffffffff82169050919050565b600061114282611117565b9050919050565b61115281611137565b811461115d57600080fd5b50565b60008135905061116f81611149565b92915050565b60006020828403121561118b5761118a610f55565b5b600061119984828501611160565b91505092915050565b6000602082840312156111b8576111b7610f55565b5b60006111c684828501610f80565b91505092915050565b6111d881611137565b82525050565b600081519050919050565b600082825260208201905092915050565b60005b838110156112185780820151818401526020810190506111fd565b60008484015250505050565b6000601f19601f8301169050919050565b6000611240826111de565b61124a81856111e9565b935061125a8185602086016111fa565b61126381611224565b840191505092915050565b600061ffff82169050919050565b6112858161126e565b82525050565b7f4e487b7100000000000000000000000000000000000000000000000000000000600052602160045260246000fd5b600381106112cb576112ca61128b565b5b50565b60008190506112dc826112ba565b919050565b60006112ec826112ce565b9050919050565b6112fc816112e1565b82525050565b600067ffffffffffffffff82169050919050565b61131f81611302565b82525050565b60006101008201905061133b600083018b6110ed565b611348602083018a6111cf565b61135560408301896110ed565b81810360608301526113678188611235565b9050818103608083015261137b8187611235565b905061138a60a083018661127c565b61139760c08301856112f3565b6113a460e0830184611316565b9998505050505050505050565b600080fd5b600080fd5b600080fd5b60008083601f8401126113d6576113d56113b1565b5b8235905067ffffffffffffffff8111156113f3576113f26113b6565b5b60208301915083600182028301111561140f5761140e6113bb565b5b9250929050565b61141f8161126e565b811461142a57600080fd5b50565b60008135905061143c81611416565b92915050565b6000806000806000806080878903121561145f5761145e610f55565b5b600061146d89828a01610f80565b965050602087013567ffffffffffffffff81111561148e5761148d610f5a565b5b61149a89828a016113c0565b9550955050604087013567ffffffffffffffff8111156114bd576114bc610f5a565b5b6114c989828a016113c0565b935093505060606114dc89828a0161142d565b9150509295509295509295565b60006020820190506114fe60008301846111cf565b92915050565b61150d81611137565b82525050565b600082825260208201905092915050565b600061152f826111de565b6115398185611513565b93506115498185602086016111fa565b61155281611224565b840191505092915050565b6115668161126e565b82525050565b611575816112e1565b82525050565b61158481611302565b82525050565b6000610100830160008301516115a36000860182611039565b5060208301516115b66020860182611504565b5060408301516115c96040860182611039565b50606083015184820360608601526115e18282611524565b915050608083015184820360808601526115fb8282611524565b91505060a083015161161060a086018261155d565b5060c083015161162360c086018261156c565b5060e083015161163660e086018261157b565b508091505092915050565b6000602082019050818103600083015261165b818461158a565b905092915050565b7f4f6e6c79206c656e646572000000000000000000000000000000000000000000600082015250565b6000611699600b836111e9565b91506116a482611663565b602082019050919050565b600060208201905081810360008301526116c88161168c565b9050919050565b7f6e6f7420666f756e640000000000000000000000000000000000000000000000600082015250565b60006117056009836111e9565b9150611710826116cf565b602082019050919050565b60006020820190508181036000830152611734816116f8565b9050919050565b7f616c726561647920646563696465640000000000000000000000000000000000600082015250565b6000611771600f836111e9565b915061177c8261173b565b602082019050919050565b600060208201905081810360008301526117a081611764565b9050919050565b60006020820190506117bc60008301846112f3565b92915050565b7f4e487b7100000000000000000000000000000000000000000000000000000000600052601160045260246000fd5b60006117fc82610f5f565b91507fffffffffffffffffffffffffffffffffffffffffffffffffffffffffffffffff820361182e5761182d6117c2565b5b600182019050919050565b7f4e487b7100000000000000000000000000000000000000000000000000000000600052604160045260246000fd5b7f4e487b7100000000000000000000000000000000000000000000000000000000600052603260045260246000fd5b7f4e487b7100000000000000000000000000000000000000000000000000000000600052602260045260246000fd5b600060028204905060018216806118de57607f821691505b6020821081036118f1576118f0611897565b5b50919050565b7f616d6f756e74203e203000000000000000000000000000000000000000000000600082015250565b600061192d600a836111e9565b9150611938826118f7565b602082019050919050565b6000602082019050818103600083015261195c81611920565b9050919050565b7f73636f7265207265717569726564000000000000000000000000000000000000600082015250565b6000611999600e836111e9565b91506119a482611963565b602082019050919050565b600060208201905081810360008301526119c88161198c565b9050919050565b60008190508160005260206000209050919050565b60006020601f8301049050919050565b600082821b905092915050565b600060088302611a317fffffffffffffffffffffffffffffffffffffffffffffffffffffffffffffffff826119f4565b611a3b86836119f4565b95508019841693508086168417925050509392505050565b6000819050919050565b6000611a78611a73611a6e84610f5f565b611a53565b610f5f565b9050919050565b6000819050919050565b611a9283611a5d565b611aa6611a9e82611a7f565b848454611a01565b825550505050565b600090565b611abb611aae565b611ac6818484611a89565b505050565b5b81811015611aea57611adf600082611ab3565b600181019050611acc565b5050565b601f821115611b2f57611b00816119cf565b611b09846119e4565b81016020851015611b18578190505b611b2c611b24856119e4565b830182611acb565b50505b505050565b600082821c905092915050565b6000611b5260001984600802611b34565b1980831691505092915050565b6000611b6b8383611b41565b9150826002028217905092915050565b611b84826111de565b67ffffffffffffffff811115611b9d57611b9c611839565b5b611ba782546118c6565b611bb2828285611aee565b600060209050601f831160018114611be55760008415611bd3578287015190505b611bdd8582611b5f565b865550611c45565b601f198416611bf3866119cf565b60005b82811015611c1b57848901518255600182019150602085019450602081019050611bf6565b86831015611c385784890151611c34601f891682611b41565b8355505b6001600288020188555050505b505050505050565b6000604082019050611c6260008301856110ed565b611c6f602083018461127c565b939250505056fea26469706673582212201241f50bbadd457cef3d6512d0f5f7741ac314f8c9068dd74ebcd5c93a8b7b9a64736f6c634300081c0033",
  "linkReferences": {},
  "deployedLinkReferences": {}
}